{
  "address": "0x0E286D8c65ED2B2d42B20c85e96A16022Ce347b4",
  "abi": [
    {
      "inputs": [
        {
          "internalType": "address",
          "name": "vrfCoordinatorV2",
          "type": "address"
        },
        {
          "internalType": "uint256",
          "name": "entranceFee",
          "type": "uint256"
        },
        {
          "internalType": "bytes32",
          "name": "gasLane",
          "type": "bytes32"
        },
        {
          "internalType": "uint64",
          "name": "subscriptionId",
          "type": "uint64"
        },
        {
          "internalType": "uint32",
          "name": "callbackGasLimit",
          "type": "uint32"
        },
        {
          "internalType": "uint256",
          "name": "interval",
          "type": "uint256"
        }
      ],
      "stateMutability": "nonpayable",
      "type": "constructor"
    },
    {
      "inputs": [],
      "name": "OnePiece__NotEnoughETHEntered",
      "type": "error"
    },
    {
      "inputs": [],
      "name": "OnePiece__NotOpen",
      "type": "error"
    },
    {
      "inputs": [],
      "name": "OnePiece__TransferFailed",
      "type": "error"
    },
    {
      "inputs": [
        {
          "internalType": "uint256",
          "name": "currentBalance",
          "type": "uint256"
        },
        {
          "internalType": "uint256",
          "name": "playerNum",
          "type": "uint256"
        },
        {
          "internalType": "uint256",
          "name": "treasureState",
          "type": "uint256"
        }
      ],
      "name": "OnePiece__UpkeepNotNeeded",
      "type": "error"
    },
    {
      "inputs": [
        {
          "internalType": "address",
          "name": "have",
          "type": "address"
        },
        {
          "internalType": "address",
          "name": "want",
          "type": "address"
        }
      ],
      "name": "OnlyCoordinatorCanFulfill",
      "type": "error"
    },
    {
      "anonymous": false,
      "inputs": [
        {
          "indexed": true,
          "internalType": "address",
          "name": "finder",
          "type": "address"
        }
      ],
      "name": "FinderPicked",
      "type": "event"
    },
    {
      "anonymous": false,
      "inputs": [
        {
          "indexed": true,
          "internalType": "address",
          "name": "player",
          "type": "address"
        }
      ],
      "name": "OnePieceRaceEnter",
      "type": "event"
    },
    {
      "anonymous": false,
      "inputs": [
        {
          "indexed": true,
          "internalType": "uint256",
          "name": "requestId",
          "type": "uint256"
        }
      ],
      "name": "RequestedOnePieceFinder",
      "type": "event"
    },
    {
      "inputs": [
        {
          "internalType": "bytes",
          "name": "",
          "type": "bytes"
        }
      ],
      "name": "checkUpkeep",
      "outputs": [
        {
          "internalType": "bool",
          "name": "upkeepNeeded",
          "type": "bool"
        },
        {
          "internalType": "bytes",
          "name": "",
          "type": "bytes"
        }
      ],
      "stateMutability": "nonpayable",
      "type": "function"
    },
    {
      "inputs": [],
      "name": "enterOnePieceRace",
      "outputs": [],
      "stateMutability": "payable",
      "type": "function"
    },
    {
      "inputs": [],
      "name": "getEntranceFee",
      "outputs": [
        {
          "internalType": "uint256",
          "name": "",
          "type": "uint256"
        }
      ],
      "stateMutability": "view",
      "type": "function"
    },
    {
      "inputs": [],
      "name": "getLatestTimeStamp",
      "outputs": [
        {
          "internalType": "uint256",
          "name": "",
          "type": "uint256"
        }
      ],
      "stateMutability": "view",
      "type": "function"
    },
    {
      "inputs": [],
      "name": "getNumOfPlayers",
      "outputs": [
        {
          "internalType": "uint256",
          "name": "",
          "type": "uint256"
        }
      ],
      "stateMutability": "view",
      "type": "function"
    },
    {
      "inputs": [],
      "name": "getNumWords",
      "outputs": [
        {
          "internalType": "uint256",
          "name": "",
          "type": "uint256"
        }
      ],
      "stateMutability": "pure",
      "type": "function"
    },
    {
      "inputs": [
        {
          "internalType": "uint256",
          "name": "index",
          "type": "uint256"
        }
      ],
      "name": "getPlayer",
      "outputs": [
        {
          "internalType": "address",
          "name": "",
          "type": "address"
        }
      ],
      "stateMutability": "view",
      "type": "function"
    },
    {
      "inputs": [],
      "name": "getRecentFinder",
      "outputs": [
        {
          "internalType": "address",
          "name": "",
          "type": "address"
        }
      ],
      "stateMutability": "view",
      "type": "function"
    },
    {
      "inputs": [],
      "name": "getRequestConfirmations",
      "outputs": [
        {
          "internalType": "uint256",
          "name": "",
          "type": "uint256"
        }
      ],
      "stateMutability": "pure",
      "type": "function"
    },
    {
      "inputs": [],
      "name": "getTreasureState",
      "outputs": [
        {
          "internalType": "enum OnePiece.TreasureState",
          "name": "",
          "type": "uint8"
        }
      ],
      "stateMutability": "view",
      "type": "function"
    },
    {
      "inputs": [
        {
          "internalType": "bytes",
          "name": "",
          "type": "bytes"
        }
      ],
      "name": "performUpkeep",
      "outputs": [],
      "stateMutability": "nonpayable",
      "type": "function"
    },
    {
      "inputs": [
        {
          "internalType": "uint256",
          "name": "requestId",
          "type": "uint256"
        },
        {
          "internalType": "uint256[]",
          "name": "randomWords",
          "type": "uint256[]"
        }
      ],
      "name": "rawFulfillRandomWords",
      "outputs": [],
      "stateMutability": "nonpayable",
      "type": "function"
    }
  ],
  "transactionHash": "0xd7230e2bcd592fd5e198069e84b85631a556f378307b6eb6908ef61a37353a4f",
  "args": [
    "0x8103B0A8A00be2DDC778e6e7eaa21791Cd364625",
    "10000000000000000",
    "0x474e34a077df58807dbe9c96d3c009b23b3c6d0cce433e59bbf5b34f823bc56c",
    "0",
    "500000",
    "500000"
  ],
  "numDeployments": 1,
  "solcInputHash": "9fa6d3874233c5d213092fbe1982f382",
  "bytecode": "0x6101406040523480156200001257600080fd5b506040516200179b3803806200179b833981810160405281019062000038919062000292565b858073ffffffffffffffffffffffffffffffffffffffff1660808173ffffffffffffffffffffffffffffffffffffffff1681525050508460c081815250508573ffffffffffffffffffffffffffffffffffffffff1660a08173ffffffffffffffffffffffffffffffffffffffff16815250508360e08181525050806003819055508267ffffffffffffffff166101008167ffffffffffffffff16815250508163ffffffff166101208163ffffffff16815250506000600160146101000a81548160ff021916908360018111156200011457620001136200032e565b5b0217905550426002819055505050505050506200035d565b600080fd5b600073ffffffffffffffffffffffffffffffffffffffff82169050919050565b60006200015e8262000131565b9050919050565b620001708162000151565b81146200017c57600080fd5b50565b600081519050620001908162000165565b92915050565b6000819050919050565b620001ab8162000196565b8114620001b757600080fd5b50565b600081519050620001cb81620001a0565b92915050565b6000819050919050565b620001e681620001d1565b8114620001f257600080fd5b50565b6000815190506200020681620001db565b92915050565b600067ffffffffffffffff82169050919050565b6200022b816200020c565b81146200023757600080fd5b50565b6000815190506200024b8162000220565b92915050565b600063ffffffff82169050919050565b6200026c8162000251565b81146200027857600080fd5b50565b6000815190506200028c8162000261565b92915050565b60008060008060008060c08789031215620002b257620002b16200012c565b5b6000620002c289828a016200017f565b9650506020620002d589828a01620001ba565b9550506040620002e889828a01620001f5565b9450506060620002fb89828a016200023a565b93505060806200030e89828a016200027b565b92505060a06200032189828a01620001ba565b9150509295509295509295565b7f4e487b7100000000000000000000000000000000000000000000000000000000600052602160045260246000fd5b60805160a05160c05160e05161010051610120516113e0620003bb6000396000610503015260006104e0015260006104bf0152600081816102b4015261068a01526000610483015260008181610304015261035801526113e06000f3fe6080604052600436106100a75760003560e01c806353a2c19a1161006457806353a2c19a146101aa578063565429de146101d55780635f1b0fd8146102005780636e04ff0d1461022b578063c5dc827014610269578063e55ae4e814610273576100a7565b806309bc33a7146100ac5780631b2d09a4146100d75780631fe543e314610102578063320229eb1461012b5780634585e33b1461015657806347abf36e1461017f575b600080fd5b3480156100b857600080fd5b506100c16102b0565b6040516100ce9190610b2f565b60405180910390f35b3480156100e357600080fd5b506100ec6102d8565b6040516100f99190610b8b565b60405180910390f35b34801561010e57600080fd5b5061012960048036038101906101249190610d3f565b610302565b005b34801561013757600080fd5b506101406103c2565b60405161014d9190610b2f565b60405180910390f35b34801561016257600080fd5b5061017d60048036038101906101789190610df6565b6103cc565b005b34801561018b57600080fd5b506101946105bc565b6040516101a19190610eba565b60405180910390f35b3480156101b657600080fd5b506101bf6105d3565b6040516101cc9190610b2f565b60405180910390f35b3480156101e157600080fd5b506101ea6105e0565b6040516101f79190610b2f565b60405180910390f35b34801561020c57600080fd5b506102156105ec565b6040516102229190610b2f565b60405180910390f35b34801561023757600080fd5b50610252600480360381019061024d9190610f8a565b6105f9565b60405161026092919061106d565b60405180910390f35b610271610688565b005b34801561027f57600080fd5b5061029a6004803603810190610295919061109d565b6107f7565b6040516102a79190610b8b565b60405180910390f35b60007f0000000000000000000000000000000000000000000000000000000000000000905090565b6000600160009054906101000a900473ffffffffffffffffffffffffffffffffffffffff16905090565b7f000000000000000000000000000000000000000000000000000000000000000073ffffffffffffffffffffffffffffffffffffffff163373ffffffffffffffffffffffffffffffffffffffff16146103b457337f00000000000000000000000000000000000000000000000000000000000000006040517f1cf993f40000000000000000000000000000000000000000000000000000000081526004016103ab9291906110ca565b60405180910390fd5b6103be828261083e565b5050565b6000600254905090565b60006103e6604051806020016040528060008152506105f9565b509050806104555747600080549050600160149054906101000a900460ff16600181111561041757610416610e43565b5b6040517f4c06e75d00000000000000000000000000000000000000000000000000000000815260040161044c939291906110f3565b60405180910390fd5b60018060146101000a81548160ff0219169083600181111561047a57610479610e43565b5b021790555060007f000000000000000000000000000000000000000000000000000000000000000073ffffffffffffffffffffffffffffffffffffffff16635d3b1d307f00000000000000000000000000000000000000000000000000000000000000007f000000000000000000000000000000000000000000000000000000000000000060037f000000000000000000000000000000000000000000000000000000000000000060016040518663ffffffff1660e01b81526004016105449594939291906111dd565b6020604051808303816000875af1158015610563573d6000803e3d6000fd5b505050506040513d601f19601f820116820180604052508101906105879190611245565b9050807f13c999cc31ad26382e6a0b214d56e3833b0e73178742900d614c0d3d2c0ae5af60405160405180910390a250505050565b6000600160149054906101000a900460ff16905090565b6000600161ffff16905090565b60008080549050905090565b6000600361ffff16905090565b600060606000600160149054906101000a900460ff16600181111561062157610620610e43565b5b6000600181111561063557610634610e43565b5b14905060006003546002544261064b91906112a1565b1190506000806000805490501190506000804711905083801561066b5750825b80156106745750815b801561067d5750805b955050505050915091565b7f00000000000000000000000000000000000000000000000000000000000000003410156106e2576040517ff71c599900000000000000000000000000000000000000000000000000000000815260040160405180910390fd5b600060018111156106f6576106f5610e43565b5b600160149054906101000a900460ff16600181111561071857610717610e43565b5b1461074f576040517f088a2d6600000000000000000000000000000000000000000000000000000000815260040160405180910390fd5b6000339080600181540180825580915050600190039060005260206000200160009091909190916101000a81548173ffffffffffffffffffffffffffffffffffffffff021916908373ffffffffffffffffffffffffffffffffffffffff1602179055503373ffffffffffffffffffffffffffffffffffffffff167f36e1748782a693d7561cc0e353c7fa9a602d4a80be3ab985c68292af133b3da860405160405180910390a2565b600080828154811061080c5761080b6112d5565b5b9060005260206000200160009054906101000a900473ffffffffffffffffffffffffffffffffffffffff169050919050565b6000808054905082600081518110610859576108586112d5565b5b602002602001015161086b9190611333565b90506000808281548110610882576108816112d5565b5b9060005260206000200160009054906101000a900473ffffffffffffffffffffffffffffffffffffffff16905080600160006101000a81548173ffffffffffffffffffffffffffffffffffffffff021916908373ffffffffffffffffffffffffffffffffffffffff1602179055506000600160146101000a81548160ff0219169083600181111561091657610915610e43565b5b0217905550600067ffffffffffffffff81111561093657610935610bfc565b5b6040519080825280602002602001820160405280156109645781602001602082028036833780820191505090505b506000908051906020019061097a929190610a6f565b504260028190555060008173ffffffffffffffffffffffffffffffffffffffff16476040516109a890611395565b60006040518083038185875af1925050503d80600081146109e5576040519150601f19603f3d011682016040523d82523d6000602084013e6109ea565b606091505b5050905080610a25576040517fb99c7bfb00000000000000000000000000000000000000000000000000000000815260040160405180910390fd5b8173ffffffffffffffffffffffffffffffffffffffff167f5c34b873ce06e2ccd7e487583d359907393624942ab5c5fa65ba5bf9f9c55fcb60405160405180910390a25050505050565b828054828255906000526020600020908101928215610ae8579160200282015b82811115610ae75782518260006101000a81548173ffffffffffffffffffffffffffffffffffffffff021916908373ffffffffffffffffffffffffffffffffffffffff16021790555091602001919060010190610a8f565b5b509050610af59190610af9565b5090565b5b80821115610b12576000816000905550600101610afa565b5090565b6000819050919050565b610b2981610b16565b82525050565b6000602082019050610b446000830184610b20565b92915050565b600073ffffffffffffffffffffffffffffffffffffffff82169050919050565b6000610b7582610b4a565b9050919050565b610b8581610b6a565b82525050565b6000602082019050610ba06000830184610b7c565b92915050565b6000604051905090565b600080fd5b600080fd5b610bc381610b16565b8114610bce57600080fd5b50565b600081359050610be081610bba565b92915050565b600080fd5b6000601f19601f8301169050919050565b7f4e487b7100000000000000000000000000000000000000000000000000000000600052604160045260246000fd5b610c3482610beb565b810181811067ffffffffffffffff82111715610c5357610c52610bfc565b5b80604052505050565b6000610c66610ba6565b9050610c728282610c2b565b919050565b600067ffffffffffffffff821115610c9257610c91610bfc565b5b602082029050602081019050919050565b600080fd5b6000610cbb610cb684610c77565b610c5c565b90508083825260208201905060208402830185811115610cde57610cdd610ca3565b5b835b81811015610d075780610cf38882610bd1565b845260208401935050602081019050610ce0565b5050509392505050565b600082601f830112610d2657610d25610be6565b5b8135610d36848260208601610ca8565b91505092915050565b60008060408385031215610d5657610d55610bb0565b5b6000610d6485828601610bd1565b925050602083013567ffffffffffffffff811115610d8557610d84610bb5565b5b610d9185828601610d11565b9150509250929050565b600080fd5b60008083601f840112610db657610db5610be6565b5b8235905067ffffffffffffffff811115610dd357610dd2610d9b565b5b602083019150836001820283011115610def57610dee610ca3565b5b9250929050565b60008060208385031215610e0d57610e0c610bb0565b5b600083013567ffffffffffffffff811115610e2b57610e2a610bb5565b5b610e3785828601610da0565b92509250509250929050565b7f4e487b7100000000000000000000000000000000000000000000000000000000600052602160045260246000fd5b60028110610e8357610e82610e43565b5b50565b6000819050610e9482610e72565b919050565b6000610ea482610e86565b9050919050565b610eb481610e99565b82525050565b6000602082019050610ecf6000830184610eab565b92915050565b600080fd5b600067ffffffffffffffff821115610ef557610ef4610bfc565b5b610efe82610beb565b9050602081019050919050565b82818337600083830152505050565b6000610f2d610f2884610eda565b610c5c565b905082815260208101848484011115610f4957610f48610ed5565b5b610f54848285610f0b565b509392505050565b600082601f830112610f7157610f70610be6565b5b8135610f81848260208601610f1a565b91505092915050565b600060208284031215610fa057610f9f610bb0565b5b600082013567ffffffffffffffff811115610fbe57610fbd610bb5565b5b610fca84828501610f5c565b91505092915050565b60008115159050919050565b610fe881610fd3565b82525050565b600081519050919050565b600082825260208201905092915050565b60005b8381101561102857808201518184015260208101905061100d565b60008484015250505050565b600061103f82610fee565b6110498185610ff9565b935061105981856020860161100a565b61106281610beb565b840191505092915050565b60006040820190506110826000830185610fdf565b81810360208301526110948184611034565b90509392505050565b6000602082840312156110b3576110b2610bb0565b5b60006110c184828501610bd1565b91505092915050565b60006040820190506110df6000830185610b7c565b6110ec6020830184610b7c565b9392505050565b60006060820190506111086000830186610b20565b6111156020830185610b20565b6111226040830184610b20565b949350505050565b6000819050919050565b61113d8161112a565b82525050565b600067ffffffffffffffff82169050919050565b61116081611143565b82525050565b600061ffff82169050919050565b61117d81611166565b82525050565b600063ffffffff82169050919050565b61119c81611183565b82525050565b6000819050919050565b60006111c76111c26111bd84611166565b6111a2565b611183565b9050919050565b6111d7816111ac565b82525050565b600060a0820190506111f26000830188611134565b6111ff6020830187611157565b61120c6040830186611174565b6112196060830185611193565b61122660808301846111ce565b9695505050505050565b60008151905061123f81610bba565b92915050565b60006020828403121561125b5761125a610bb0565b5b600061126984828501611230565b91505092915050565b7f4e487b7100000000000000000000000000000000000000000000000000000000600052601160045260246000fd5b60006112ac82610b16565b91506112b783610b16565b92508282039050818111156112cf576112ce611272565b5b92915050565b7f4e487b7100000000000000000000000000000000000000000000000000000000600052603260045260246000fd5b7f4e487b7100000000000000000000000000000000000000000000000000000000600052601260045260246000fd5b600061133e82610b16565b915061134983610b16565b92508261135957611358611304565b5b828206905092915050565b600081905092915050565b50565b600061137f600083611364565b915061138a8261136f565b600082019050919050565b60006113a082611372565b915081905091905056fea26469706673582212207cbe1ae166a18b2faf9f096028d542a883594e2c7be080461dfc94b8fb6ed4d664736f6c63430008120033",
  "devdoc": {
    "kind": "dev",
    "methods": {},
    "version": 1
  },
  "userdoc": {
    "kind": "user",
    "methods": {},
    "version": 1
  },
  "storageLayout": {
    "storage": [
      {
        "astId": 201,
        "contract": "contracts/OnePiece.sol:OnePiece",
        "label": "s_players",
        "offset": 0,
        "slot": "0",
        "type": "t_array(t_address_payable)dyn_storage"
      },
      {
        "astId": 203,
        "contract": "contracts/OnePiece.sol:OnePiece",
        "label": "s_recentFinder",
        "offset": 0,
        "slot": "1",
        "type": "t_address"
      },
      {
        "astId": 206,
        "contract": "contracts/OnePiece.sol:OnePiece",
        "label": "s_treasureState",
        "offset": 20,
        "slot": "1",
        "type": "t_enum(TreasureState)198"
      },
      {
        "astId": 208,
        "contract": "contracts/OnePiece.sol:OnePiece",
        "label": "s_lastTimeStamp",
        "offset": 0,
        "slot": "2",
        "type": "t_uint256"
      },
      {
        "astId": 221,
        "contract": "contracts/OnePiece.sol:OnePiece",
        "label": "i_interval",
        "offset": 0,
        "slot": "3",
        "type": "t_uint256"
      }
    ],
    "types": {
      "t_address": {
        "encoding": "inplace",
        "label": "address",
        "numberOfBytes": "20"
      },
      "t_address_payable": {
        "encoding": "inplace",
        "label": "address payable",
        "numberOfBytes": "20"
      },
      "t_array(t_address_payable)dyn_storage": {
        "base": "t_address_payable",
        "encoding": "dynamic_array",
        "label": "address payable[]",
        "numberOfBytes": "32"
      },
      "t_enum(TreasureState)198": {
        "encoding": "inplace",
        "label": "enum OnePiece.TreasureState",
        "numberOfBytes": "1"
      },
      "t_uint256": {
        "encoding": "inplace",
        "label": "uint256",
        "numberOfBytes": "32"
      }
    }
  }
}